:020000021000EC
:10FC000001C025C1112484B7882369F0982F9A7008
:10FC1000923049F081FF02C097EF94BF282E80E018
:10FC200001D10C94000085E08093810082E08093F4
:10FC3000C00088E18093C10086E08093C20082E228
:10FC40008093C4008EE0EED00C9A86E020E33CEF77
:10FC500091E0309385002093840096BBB09BFECF4B
:10FC6000049AA8954091C00047FD02C0815089F7D1
:10FC700043E0D42ECC24C39451E1752EC7D08134F7
:10FC800079F4C4D0C82FD4D0C23811F480E004C0B5
:10FC900088E0C13809F083E0B2D080E1B0D0EECF87
:10FCA000823419F484E1CCD0F8CF853411F485E0A6
:10FCB000FACF853581F4AAD0082FA8D0182F87FF56
:10FCC00007C08BB781608BBF000F111FB1D0E5CF8C
:10FCD0008BB78E7FF8CF863579F498D08D3451F478
:10FCE00095D0CBB793D0C170880F8C2B8BBF81E0A0
:10FCF000A7D0CCCF83E0FCCF843609F04EC086D0AD
:10FD0000C82FD0E0DC2FCC2781D0C82B7FD0682E25
:10FD10005E01B394E12CFF24F3944701EFEFEE1A58
:10FD2000FE0A74D0F4018083EA14FB04B1F780D09A
:10FD3000F5E46F1211C0F12CE12C08C06081C701FD
:10FD4000800F911F9CD08FEFE81AF80AF701F39506
:10FD5000CE15DF0599F7A1CFF801D7BEE89507B614
:10FD600000FCFDCF90E080E0FC01E00FF11FDC0122
:10FD7000B3952D913C910901C7BEE89511240296D7
:10FD8000C817D90789F785E0F80187BFE89507B656
:10FD900000FCFDCF77BEE89580CF843709F536D0DB
:10FDA000C82FD0E0DC2FCC2731D0C82B2FD0B82ED5
:10FDB0003FD07801F5E4BF120CC0C00FD11FC701BE
:10FDC00056D01DD08FEFE81AF80AEC16FD06B9F7E9
:10FDD00064CFF70187917F0112D02197D1F75DCFD2
:10FDE000853739F425D08EE10AD087E908D085E03F
:10FDF00053CF813509F06ACF88E014D067CF909156
:10FE0000C00095FFFCCF8093C60008958091C0008C
:10FE100087FFFCCF8091C00084FD01C0A895809130
:10FE2000C6000895E0E6F0E098E1908380830895AD
:10FE3000EDDF803219F088E0F5DFFFCF84E1DFCF1E
:10FE4000CF93C82FE3DFC150E9F7CF91F1CFFC0189
:10FE50000A0167BFE895112407B600FCFDCF667064
:10FE600029F0452B19F481E187BFE8950895F999A8
:10FE7000FECF92BD81BDF89A992780B50895262FAF
:10FE8000F999FECF1FBA92BD81BD20BD0FB6F8947F
:10FE9000FA9AF99A0FBE0196089556657273696FC2
:10FEA0006E3D382E30004F505449424F4F545F43FF
:10FEB0005553544F4D5645523D3000446576696365
:10FEC000653D61746D656761313238347000465F3D
:10FED0004350553D31363030303030304C0042499F
:10FEE00047424F4F543D31004275696C743A417539
:10FEF0006720203920323031393A31373A31313ABE
:10FF0000313500554152543D3000424155445F5215
:10FF10004154453D3537363030004C45443D413441
:10FF2000004C45445F53544152545F464C41534842
:06FF300045533D330000C3
:02FFFE000008F9
:040000031000FC00ED
:00000001FF
